{
  "contractName": "VotingContract",
  "abi": [
    {
      "inputs": [],
      "payable": false,
      "stateMutability": "nonpayable",
      "type": "constructor"
    },
    {
      "anonymous": false,
      "inputs": [
        {
          "indexed": true,
          "internalType": "uint256",
          "name": "_candidateId",
          "type": "uint256"
        }
      ],
      "name": "votedEvent",
      "type": "event"
    },
    {
      "constant": true,
      "inputs": [
        {
          "internalType": "uint256",
          "name": "",
          "type": "uint256"
        }
      ],
      "name": "candidateArray",
      "outputs": [
        {
          "internalType": "uint256",
          "name": "id",
          "type": "uint256"
        },
        {
          "internalType": "string",
          "name": "name",
          "type": "string"
        },
        {
          "internalType": "uint256",
          "name": "voteCount",
          "type": "uint256"
        }
      ],
      "payable": false,
      "stateMutability": "view",
      "type": "function"
    },
    {
      "constant": true,
      "inputs": [
        {
          "internalType": "uint256",
          "name": "",
          "type": "uint256"
        }
      ],
      "name": "candidates",
      "outputs": [
        {
          "internalType": "uint256",
          "name": "id",
          "type": "uint256"
        },
        {
          "internalType": "string",
          "name": "name",
          "type": "string"
        },
        {
          "internalType": "uint256",
          "name": "voteCount",
          "type": "uint256"
        }
      ],
      "payable": false,
      "stateMutability": "view",
      "type": "function"
    },
    {
      "constant": true,
      "inputs": [],
      "name": "candidatesCount",
      "outputs": [
        {
          "internalType": "uint256",
          "name": "",
          "type": "uint256"
        }
      ],
      "payable": false,
      "stateMutability": "view",
      "type": "function"
    },
    {
      "constant": true,
      "inputs": [],
      "name": "owner",
      "outputs": [
        {
          "internalType": "address",
          "name": "",
          "type": "address"
        }
      ],
      "payable": false,
      "stateMutability": "view",
      "type": "function"
    },
    {
      "constant": true,
      "inputs": [
        {
          "internalType": "address",
          "name": "",
          "type": "address"
        }
      ],
      "name": "voters",
      "outputs": [
        {
          "internalType": "bool",
          "name": "",
          "type": "bool"
        }
      ],
      "payable": false,
      "stateMutability": "view",
      "type": "function"
    },
    {
      "constant": false,
      "inputs": [
        {
          "internalType": "string",
          "name": "_name",
          "type": "string"
        }
      ],
      "name": "addCandidate",
      "outputs": [],
      "payable": false,
      "stateMutability": "nonpayable",
      "type": "function"
    },
    {
      "constant": false,
      "inputs": [
        {
          "internalType": "uint256",
          "name": "_candidateId",
          "type": "uint256"
        }
      ],
      "name": "vote",
      "outputs": [],
      "payable": false,
      "stateMutability": "nonpayable",
      "type": "function"
    },
    {
      "constant": true,
      "inputs": [],
      "name": "getCandidates",
      "outputs": [
        {
          "components": [
            {
              "internalType": "uint256",
              "name": "id",
              "type": "uint256"
            },
            {
              "internalType": "string",
              "name": "name",
              "type": "string"
            },
            {
              "internalType": "uint256",
              "name": "voteCount",
              "type": "uint256"
            }
          ],
          "internalType": "struct VotingContract.Candidate[]",
          "name": "",
          "type": "tuple[]"
        }
      ],
      "payable": false,
      "stateMutability": "view",
      "type": "function"
    }
  ],
  "bytecode": "0x608060405234801561001057600080fd5b50600480546001600160a01b0319163317905560408051808201909152600e81526d53616d61727468204768616e746560901b602082015261005a906001600160e01b0361009516565b60408051808201909152600d81526c25b0b734b9b4359025bab6b0b960991b6020820152610090906001600160e01b0361009516565b610245565b6004546001600160a01b031633146100ac57600080fd5b600380546001908101918290556040805160608101825283815260208082018681526000838501819052958652848252929094208151815591518051919492936100fc93908501929101906101aa565b50604091820151600291820155815160608101835260038054825260208083018681526000958401869052845460018101808755959096528351959092027f405787fa12a823e0f2b7631cc41b3ba8828b3321ca811111fa75cd3aa3bb5ace81019586559151805194959394610199937f405787fa12a823e0f2b7631cc41b3ba8828b3321ca811111fa75cd3aa3bb5acf019291909101906101aa565b506040820151816002015550505050565b828054600181600116156101000203166002900490600052602060002090601f016020900481019282601f106101eb57805160ff1916838001178555610218565b82800160010185558215610218579182015b828111156102185782518255916020019190600101906101fd565b50610224929150610228565b5090565b61024291905b80821115610224576000815560010161022e565b90565b6109b0806102546000396000f3fe608060405234801561001057600080fd5b50600436106100885760003560e01c806335a893a11161005b57806335a893a1146100f7578063462e91ec1461010a5780638da5cb5b1461011d578063a3ec138d1461013257610088565b80630121b93f1461008d57806306a49fce146100a25780632d35a8a2146100c05780633477ee2e146100d5575b600080fd5b6100a061009b3660046106de565b610152565b005b6100aa6101e6565b6040516100b7919061082d565b60405180910390f35b6100c86102fc565b6040516100b7919061084c565b6100e86100e33660046106de565b610302565b6040516100b79392919061085a565b6100e86101053660046106de565b6103ae565b6100a06101183660046106a9565b610442565b610125610557565b6040516100b7919061081f565b610145610140366004610683565b610566565b6040516100b7919061083e565b3360009081526020819052604090205460ff161561016f57600080fd5b60008111801561018157506003548111155b61018a57600080fd5b33600090815260208181526040808320805460ff191660019081179091558484529182905280832060020180549092019091555182917ffff3c900d938d21d0990d786e819f29b8d05c1ef587b462b939609625b684b1691a250565b60606002805480602002602001604051908101604052809291908181526020016000905b828210156102f2578382906000526020600020906003020160405180606001604052908160008201548152602001600182018054600181600116156101000203166002900480601f0160208091040260200160405190810160405280929190818152602001828054600181600116156101000203166002900480156102d05780601f106102a5576101008083540402835291602001916102d0565b820191906000526020600020905b8154815290600101906020018083116102b357829003601f168201915b505050505081526020016002820154815250508152602001906001019061020a565b5050505090505b90565b60035481565b600160208181526000928352604092839020805481840180548651600296821615610100026000190190911695909504601f8101859004850286018501909652858552909491939290919083018282801561039e5780601f106103735761010080835404028352916020019161039e565b820191906000526020600020905b81548152906001019060200180831161038157829003601f168201915b5050505050908060020154905083565b600281815481106103bb57fe5b9060005260206000209060030201600091509050806000015490806001018054600181600116156101000203166002900480601f01602080910402602001604051908101604052809291908181526020018280546001816001161561010002031660029004801561039e5780601f106103735761010080835404028352916020019161039e565b6004546001600160a01b0316331461045957600080fd5b600380546001908101918290556040805160608101825283815260208082018681526000838501819052958652848252929094208151815591518051919492936104a9939085019291019061057b565b50604091820151600291820155815160608101835260038054825260208083018681526000958401869052845460018101808755959096528351959092027f405787fa12a823e0f2b7631cc41b3ba8828b3321ca811111fa75cd3aa3bb5ace81019586559151805194959394610546937f405787fa12a823e0f2b7631cc41b3ba8828b3321ca811111fa75cd3aa3bb5acf0192919091019061057b565b506040820151816002015550505050565b6004546001600160a01b031681565b60006020819052908152604090205460ff1681565b828054600181600116156101000203166002900490600052602060002090601f016020900481019282601f106105bc57805160ff19168380011785556105e9565b828001600101855582156105e9579182015b828111156105e95782518255916020019190600101906105ce565b506105f59291506105f9565b5090565b6102f991905b808211156105f557600081556001016105ff565b803561061e8161094d565b92915050565b600082601f83011261063557600080fd5b8135610648610643826108b0565b610889565b9150808252602083016020830185838301111561066457600080fd5b61066f838284610907565b50505092915050565b803561061e81610964565b60006020828403121561069557600080fd5b60006106a18484610613565b949350505050565b6000602082840312156106bb57600080fd5b813567ffffffffffffffff8111156106d257600080fd5b6106a184828501610624565b6000602082840312156106f057600080fd5b60006106a18484610678565b600061070883836107cd565b9392505050565b610718816108eb565b82525050565b6000610729826108de565b61073381856108e2565b935083602082028501610745856108d8565b8060005b8581101561077f578484038952815161076285826106fc565b945061076d836108d8565b60209a909a0199925050600101610749565b5091979650505050505050565b610718816108f6565b60006107a0826108de565b6107aa81856108e2565b93506107ba818560208601610913565b6107c381610943565b9093019392505050565b805160009060608401906107e18582610816565b50602083015184820360208601526107f98282610795565b915050604083015161080e6040860182610816565b509392505050565b610718816102f9565b6020810161061e828461070f565b60208082528101610708818461071e565b6020810161061e828461078c565b6020810161061e8284610816565b606081016108688286610816565b818103602083015261087a8185610795565b90506106a16040830184610816565b60405181810167ffffffffffffffff811182821017156108a857600080fd5b604052919050565b600067ffffffffffffffff8211156108c757600080fd5b506020601f91909101601f19160190565b60200190565b5190565b90815260200190565b600061061e826108fb565b151590565b6001600160a01b031690565b82818337506000910152565b60005b8381101561092e578181015183820152602001610916565b8381111561093d576000848401525b50505050565b601f01601f191690565b610956816108eb565b811461096157600080fd5b50565b610956816102f956fea365627a7a72315820a8e5461925ef1f8a6d23285ec93e6c05ec912d7a8442694499b815a9b754d2d36c6578706572696d656e74616cf564736f6c63430005100040",
  "source": "// SPDX-License-Identifier: UNLICENCED\npragma solidity >=0.4.22 <0.9.0;\npragma experimental ABIEncoderV2;\n\ncontract VotingContract {\n    \n    struct Candidate {\n        uint id;\n        string name;\n        uint voteCount;\n    }\n\n    mapping(address => bool) public voters;\n\n    mapping(uint => Candidate) public candidates;\n    Candidate[] public candidateArray; \n    uint public candidatesCount;\n\n    event votedEvent (\n        uint indexed _candidateId\n    );\n\n    address public owner;\n    constructor () public {\n        owner = msg.sender;\n        addCandidate(\"Samarth Ghante\");\n        addCandidate(\"Kanishk Kumar\");\n    }\n\n    function addCandidate(string memory _name) public {\n        require(msg.sender == owner);\n        candidatesCount++;\n        candidates[candidatesCount] = Candidate(candidatesCount, _name, 0);\n        candidateArray.push(Candidate(candidatesCount, _name, 0)); \n    }\n\n    function vote (uint _candidateId) public {\n        require(!voters[msg.sender]);\n        require(_candidateId > 0 && _candidateId <= candidatesCount);\n        voters[msg.sender] = true;\n        candidates[_candidateId].voteCount ++;\n        emit votedEvent(_candidateId);\n    }\n\n    function getCandidates() public view returns (Candidate[] memory) {\n        return candidateArray;\n    }\n}\n",
  "sourcePath": "/Users/praveenchiliveri/Desktop/BlockChain/Git-Project-Voting/Blockchain-Voting-System/src/assets/contracts/VotingContract.sol",
  "compiler": {
    "name": "solc",
    "version": "0.5.16+commit.9c3226ce.Emscripten.clang"
  },
  "schemaVersion": "3.4.16",
  "updatedAt": "2023-11-25T08:11:34.432Z",
  "networkType": "ethereum",
  "devdoc": {
    "methods": {}
  },
  "userdoc": {
    "methods": {}
  }
}