{
  "contractName": "VotingContract",
  "abi": [
    {
      "inputs": [],
      "payable": false,
      "stateMutability": "nonpayable",
      "type": "constructor"
    },
    {
      "anonymous": false,
      "inputs": [
        {
          "indexed": true,
          "internalType": "uint256",
          "name": "_candidateId",
          "type": "uint256"
        }
      ],
      "name": "votedEvent",
      "type": "event"
    },
    {
      "anonymous": false,
      "inputs": [
        {
          "indexed": true,
          "internalType": "address",
          "name": "_voterAddress",
          "type": "address"
        },
        {
          "indexed": true,
          "internalType": "uint256",
          "name": "_voterId",
          "type": "uint256"
        }
      ],
      "name": "voterRegisteredEvent",
      "type": "event"
    },
    {
      "constant": true,
      "inputs": [
        {
          "internalType": "address",
          "name": "",
          "type": "address"
        }
      ],
      "name": "adminAccountIds",
      "outputs": [
        {
          "internalType": "bool",
          "name": "",
          "type": "bool"
        }
      ],
      "payable": false,
      "stateMutability": "view",
      "type": "function"
    },
    {
      "constant": true,
      "inputs": [
        {
          "internalType": "uint256",
          "name": "",
          "type": "uint256"
        }
      ],
      "name": "candidates",
      "outputs": [
        {
          "internalType": "uint256",
          "name": "id",
          "type": "uint256"
        },
        {
          "internalType": "string",
          "name": "name",
          "type": "string"
        },
        {
          "internalType": "uint256",
          "name": "voteCount",
          "type": "uint256"
        }
      ],
      "payable": false,
      "stateMutability": "view",
      "type": "function"
    },
    {
      "constant": true,
      "inputs": [],
      "name": "candidatesCount",
      "outputs": [
        {
          "internalType": "uint256",
          "name": "",
          "type": "uint256"
        }
      ],
      "payable": false,
      "stateMutability": "view",
      "type": "function"
    },
    {
      "constant": true,
      "inputs": [
        {
          "internalType": "uint256",
          "name": "",
          "type": "uint256"
        }
      ],
      "name": "uniqueVoterIds",
      "outputs": [
        {
          "internalType": "bool",
          "name": "",
          "type": "bool"
        }
      ],
      "payable": false,
      "stateMutability": "view",
      "type": "function"
    },
    {
      "constant": true,
      "inputs": [
        {
          "internalType": "uint256",
          "name": "",
          "type": "uint256"
        }
      ],
      "name": "voterAddresses",
      "outputs": [
        {
          "internalType": "address",
          "name": "",
          "type": "address"
        }
      ],
      "payable": false,
      "stateMutability": "view",
      "type": "function"
    },
    {
      "constant": true,
      "inputs": [
        {
          "internalType": "address",
          "name": "",
          "type": "address"
        }
      ],
      "name": "voters",
      "outputs": [
        {
          "internalType": "uint256",
          "name": "voterId",
          "type": "uint256"
        },
        {
          "internalType": "bool",
          "name": "hasVoted",
          "type": "bool"
        }
      ],
      "payable": false,
      "stateMutability": "view",
      "type": "function"
    },
    {
      "constant": true,
      "inputs": [],
      "name": "votingEndTime",
      "outputs": [
        {
          "internalType": "uint256",
          "name": "",
          "type": "uint256"
        }
      ],
      "payable": false,
      "stateMutability": "view",
      "type": "function"
    },
    {
      "constant": false,
      "inputs": [
        {
          "internalType": "string",
          "name": "_name",
          "type": "string"
        }
      ],
      "name": "addCandidate",
      "outputs": [],
      "payable": false,
      "stateMutability": "nonpayable",
      "type": "function"
    },
    {
      "constant": false,
      "inputs": [
        {
          "internalType": "uint256",
          "name": "_candidateId",
          "type": "uint256"
        },
        {
          "internalType": "uint256",
          "name": "_voterId",
          "type": "uint256"
        }
      ],
      "name": "vote",
      "outputs": [],
      "payable": false,
      "stateMutability": "nonpayable",
      "type": "function"
    },
    {
      "constant": false,
      "inputs": [
        {
          "internalType": "uint256",
          "name": "_voterId",
          "type": "uint256"
        },
        {
          "internalType": "address",
          "name": "_voterAddress",
          "type": "address"
        }
      ],
      "name": "registerVoter",
      "outputs": [],
      "payable": false,
      "stateMutability": "nonpayable",
      "type": "function"
    },
    {
      "constant": true,
      "inputs": [],
      "name": "getCandidates",
      "outputs": [
        {
          "components": [
            {
              "internalType": "uint256",
              "name": "id",
              "type": "uint256"
            },
            {
              "internalType": "string",
              "name": "name",
              "type": "string"
            },
            {
              "internalType": "uint256",
              "name": "voteCount",
              "type": "uint256"
            }
          ],
          "internalType": "struct VotingContract.Candidate[]",
          "name": "",
          "type": "tuple[]"
        }
      ],
      "payable": false,
      "stateMutability": "view",
      "type": "function"
    },
    {
      "constant": true,
      "inputs": [],
      "name": "getVotingEndTime",
      "outputs": [
        {
          "internalType": "uint256",
          "name": "",
          "type": "uint256"
        }
      ],
      "payable": false,
      "stateMutability": "view",
      "type": "function"
    },
    {
      "constant": true,
      "inputs": [
        {
          "internalType": "uint256",
          "name": "_voterId",
          "type": "uint256"
        }
      ],
      "name": "checkIfVoterIdExists",
      "outputs": [
        {
          "internalType": "bool",
          "name": "",
          "type": "bool"
        }
      ],
      "payable": false,
      "stateMutability": "view",
      "type": "function"
    },
    {
      "constant": true,
      "inputs": [
        {
          "internalType": "address",
          "name": "adminAccountId",
          "type": "address"
        }
      ],
      "name": "checkIfAdminUser",
      "outputs": [
        {
          "internalType": "bool",
          "name": "",
          "type": "bool"
        }
      ],
      "payable": false,
      "stateMutability": "view",
      "type": "function"
    },
    {
      "constant": false,
      "inputs": [
        {
          "internalType": "uint256",
          "name": "newTimeStamp",
          "type": "uint256"
        }
      ],
      "name": "startNewPoll",
      "outputs": [],
      "payable": false,
      "stateMutability": "nonpayable",
      "type": "function"
    },
    {
      "constant": true,
      "inputs": [],
      "name": "getWinner",
      "outputs": [
        {
          "internalType": "string",
          "name": "",
          "type": "string"
        }
      ],
      "payable": false,
      "stateMutability": "view",
      "type": "function"
    }
  ],
  "bytecode": "0x6080604052600060055534801561001557600080fd5b5060036020527f9d40ef5f4c84e1e57b2400f317208a753cd2259d8c96eb339cc77f2bff607ad9805460ff199081166001908117821681179092557f1e5cc82725514d7bd4fc9f83877c7437565a8a38e76672d40db754274fa33e4b80548216831790557376d81132eb074d4d2277fb10fdf14177fbfa73416000527f21d65e17b88579fb767f2efe7d03af49af52cba783e431ae005fd6d829ce784180549091169091179055426006556111f8806100cf6000396000f3fe608060405234801561001057600080fd5b50600436106101005760003560e01c8063860b2f5711610097578063b1bf87b011610066578063b1bf87b014610219578063b384abef14610221578063b8b31bfa14610234578063dd0e23731461024757610100565b8063860b2f57146101bd5780638e7ea5b2146101d057806394c790bb146101e5578063a3ec138d146101f857610100565b80633477ee2e116100d35780633477ee2e146101605780633e54813514610182578063462e91ec146101975780637987af15146101aa57610100565b806306a49fce146101055780630e8d6189146101235780631ea736e0146101435780632d35a8a214610158575b600080fd5b61010d610267565b60405161011a9190610fcc565b60405180910390f35b610136610131366004610be7565b6103b2565b60405161011a9190610fdd565b61014b6103c7565b60405161011a919061107c565b61014b6103cd565b61017361016e366004610c42565b6103d3565b60405161011a939291906110a5565b610195610190366004610c42565b61047e565b005b6101956101a5366004610c0d565b6105b4565b6101366101b8366004610c42565b610645565b6101366101cb366004610be7565b610677565b6101d8610695565b60405161011a9190610feb565b6101956101f3366004610c60565b6107a2565b61020b610206366004610be7565b6108b2565b60405161011a92919061108a565b61014b6108ce565b61019561022f366004610c9a565b6108d4565b610136610242366004610c42565b610a23565b61025a610255366004610c42565b610a38565b60405161011a9190610fbe565b6060806005546040519080825280602002602001820160405280156102a657816020015b610293610a5f565b81526020019060019003908161028b5790505b50905060015b60055481116103ab576002600082815260200190815260200160002060405180606001604052908160008201548152602001600182018054600181600116156101000203166002900480601f0160208091040260200160405190810160405280929190818152602001828054600181600116156101000203166002900480156103765780601f1061034b57610100808354040283529160200191610376565b820191906000526020600020905b81548152906001019060200180831161035957829003601f168201915b5050505050815260200160028201548152505082600183038151811061039857fe5b60209081029190910101526001016102ac565b5090505b90565b60036020526000908152604090205460ff1681565b60065481565b60055481565b60026020818152600092835260409283902080546001808301805487519281161561010002600019011695909504601f810185900485028201850190965285815290949193909290919083018282801561046e5780601f106104435761010080835404028352916020019161046e565b820191906000526020600020905b81548152906001019060200180831161045157829003601f168201915b5050505050908060020154905083565b3360009081526003602052604090205460ff166104b65760405162461bcd60e51b81526004016104ad90610ffc565b60405180910390fd5b60015b60055481116104f3576000818152600260205260408120818155906104e16001830182610a80565b506000600291909101556001016104b9565b50600060058190555b6004548110156105a257600160008060006004858154811061051a57fe5b60009182526020808320909101546001600160a01b0316835282810193909352604091820181205484529183019390935291018120805460ff19169055600480548291908490811061056857fe5b60009182526020808320909101546001600160a01b0316835282019290925260400181209081556001908101805460ff19169055016104fc565b506105af60046000610ac7565b600655565b3360009081526003602052604090205460ff166105e35760405162461bcd60e51b81526004016104ad9061105c565b60058054600190810191829055604080516060810182528381526020808201868152600083850181905295865260028252929094208151815591518051919492936106349390850192910190610ae5565b506040820151816002015590505050565b60008181526001602052604081205460ff16801561067157503360009081526020819052604090205482145b92915050565b6001600160a01b031660009081526003602052604090205460ff1690565b60606000600554116106b95760405162461bcd60e51b81526004016104ad9061101c565b60008060015b600554811161070357600081815260026020819052604090912001548310156106fb576000818152600260208190526040909120015492509050805b6001016106bf565b506000818152600260208181526040928390206001908101805485519281161561010002600019011693909304601f810183900483028201830190945283815292908301828280156107965780601f1061076b57610100808354040283529160200191610796565b820191906000526020600020905b81548152906001019060200180831161077957829003601f168201915b50505050509250505090565b60008281526001602052604090205460ff1615806107d657506001600160a01b038116600090815260208190526040902054155b6107f25760405162461bcd60e51b81526004016104ad9061104c565b604080518082018252838152600060208083018281526001600160a01b0386168084528383528584209451855590516001948501805491151560ff19928316179055878452918490528483208054909216841790915560048054938401815582527f8a35acfbc15ff81a39ae7d344fd709f28e8600b4aa8c65c6b64bfe7fe36bd19b90920180546001600160a01b03191683179055915184927f7d363e801493b0c12d332ee09719b538f2b20b110e636bc806ed29abcf370e8a91a35050565b6000602081905290815260409020805460019091015460ff1682565b60065490565b60065442106108f55760405162461bcd60e51b81526004016104ad9061102c565b33600090815260208190526040902054156109225760405162461bcd60e51b81526004016104ad9061100c565b336000908152602081905260409020548114156109515760405162461bcd60e51b81526004016104ad9061103c565b3360009081526020819052604090206001015460ff16156109845760405162461bcd60e51b81526004016104ad9061106c565b336000818152602081815260408083206001908101805460ff191682179055600480548083019091557f8a35acfbc15ff81a39ae7d344fd709f28e8600b4aa8c65c6b64bfe7fe36bd19b0180546001600160a01b0319169095179094558583526002918290528083209091018054909301909255905183917ffff3c900d938d21d0990d786e819f29b8d05c1ef587b462b939609625b684b1691a25050565b60016020526000908152604090205460ff1681565b60048181548110610a4557fe5b6000918252602090912001546001600160a01b0316905081565b60405180606001604052806000815260200160608152602001600081525090565b50805460018160011615610100020316600290046000825580601f10610aa65750610ac4565b601f016020900490600052602060002090810190610ac49190610b63565b50565b5080546000825590600052602060002090810190610ac49190610b63565b828054600181600116156101000203166002900490600052602060002090601f016020900481019282601f10610b2657805160ff1916838001178555610b53565b82800160010185558215610b53579182015b82811115610b53578251825591602001919060010190610b38565b50610b5f929150610b63565b5090565b6103af91905b80821115610b5f5760008155600101610b69565b803561067181611198565b600082601f830112610b9957600080fd5b8135610bac610ba7826110fb565b6110d4565b91508082526020830160208301858383011115610bc857600080fd5b610bd3838284611152565b50505092915050565b8035610671816111ac565b600060208284031215610bf957600080fd5b6000610c058484610b7d565b949350505050565b600060208284031215610c1f57600080fd5b813567ffffffffffffffff811115610c3657600080fd5b610c0584828501610b88565b600060208284031215610c5457600080fd5b6000610c058484610bdc565b60008060408385031215610c7357600080fd5b6000610c7f8585610bdc565b9250506020610c9085828601610b7d565b9150509250929050565b60008060408385031215610cad57600080fd5b6000610cb98585610bdc565b9250506020610c9085828601610bdc565b6000610cd68383610f6c565b9392505050565b610ce681611136565b82525050565b6000610cf782611129565b610d01818561112d565b935083602082028501610d1385611123565b8060005b85811015610d4d5784840389528151610d308582610cca565b9450610d3b83611123565b60209a909a0199925050600101610d17565b5091979650505050505050565b610ce681611141565b6000610d6e82611129565b610d78818561112d565b9350610d8881856020860161115e565b610d918161118e565b9093019392505050565b6000610da860288361112d565b7f4f6e6c792061646d696e206163636f756e74732063616e2073746172742061208152671b995dc81c1bdb1b60c21b602082015260400192915050565b6000610df260148361112d565b73159bdd195c881b9bdd081c9959da5cdd195c995960621b815260200192915050565b6000610e2260178361112d565b7f4e6f2063616e6469646174657320617661696c61626c65000000000000000000815260200192915050565b6000610e5b60108361112d565b6f159bdd1a5b99c81a185cc8195b99195960821b815260200192915050565b6000610e87600e8361112d565b6d125b9d985b1a59159bdd195c925960921b815260200192915050565b6000610eb160298361112d565b7f416c726561647920776974682073616d6520766f7465722049642065786973748152681cc81a5b88141bdbdb60ba1b602082015260400192915050565b6000610efc60298361112d565b7f4f6e6c792061646d696e206163636f756e74732063616e20616464207468652081526863616e64696461746560b81b602082015260400192915050565b6000610f4760168361112d565b75165bdd481a185d9948185b1c9958591e481d9bdd195960521b815260200192915050565b80516000906060840190610f808582610fb5565b5060208301518482036020860152610f988282610d63565b9150506040830151610fad6040860182610fb5565b509392505050565b610ce6816103af565b602081016106718284610cdd565b60208082528101610cd68184610cec565b602081016106718284610d5a565b60208082528101610cd68184610d63565b6020808252810161067181610d9b565b6020808252810161067181610de5565b6020808252810161067181610e15565b6020808252810161067181610e4e565b6020808252810161067181610e7a565b6020808252810161067181610ea4565b6020808252810161067181610eef565b6020808252810161067181610f3a565b602081016106718284610fb5565b604081016110988285610fb5565b610cd66020830184610d5a565b606081016110b38286610fb5565b81810360208301526110c58185610d63565b9050610c056040830184610fb5565b60405181810167ffffffffffffffff811182821017156110f357600080fd5b604052919050565b600067ffffffffffffffff82111561111257600080fd5b506020601f91909101601f19160190565b60200190565b5190565b90815260200190565b600061067182611146565b151590565b6001600160a01b031690565b82818337506000910152565b60005b83811015611179578181015183820152602001611161565b83811115611188576000848401525b50505050565b601f01601f191690565b6111a181611136565b8114610ac457600080fd5b6111a1816103af56fea365627a7a723158203e6f077fc945ae561eda7d87ed7b301df07aee4609b674a990068e1d22a2534c6c6578706572696d656e74616cf564736f6c63430005100040",
  "source": "// SPDX-License-Identifier: UNLICENCED\npragma solidity >=0.4.22 <0.9.0;\npragma experimental ABIEncoderV2;\n\ncontract VotingContract {\n    \n    // This structure will capture the candidate Id, name, and votes received till now.\n    struct Candidate {\n        uint id;\n        string name;\n        uint voteCount;\n    }\n\n    // This structure will caputre the voterId and a flag hasVoted to know if the voter has voted already.\n    struct Voter {\n        uint voterId;\n        bool hasVoted;\n    }\n\n    // This map will contains the voter Account Address with the corresponding Voter Information\n    mapping(address => Voter) public voters;\n    // This map will track the unique voter ids\n    mapping(uint => bool) public uniqueVoterIds;\n    // This map will contain the candidate id with the corresponding Candidate Information\n    mapping(uint => Candidate) public candidates;\n    // This map will track the admin Account Addresses\n    mapping(address => bool) public adminAccountIds;\n    // This list will store all the unique voter Account Addresses\n    address[] public voterAddresses;\n    // This variable will track the current candidates count\n    uint public candidatesCount=0;\n    // This variable will track the voting end time.\n    uint public votingEndTime;\n\n    // This event will emit the candidate Id to the client.\n    event votedEvent (\n        uint indexed _candidateId\n    );\n\n    // This event will emit the voter account address and voter id\n    event voterRegisteredEvent (\n        address indexed _voterAddress,\n        uint indexed _voterId\n    );\n\n    // Constructor will initialize the admin accounts and sets the voting end time to current time\n    constructor () public {\n        // Initialize admin account IDs\n        adminAccountIds[address(0xAe1DdF39a90FeeAc8708739aacCa6e8781daC6c6)] = true;\n        adminAccountIds[address(0xAe1DdF39a90FeeAc8708739aacCa6e8781daC6c6)] = true;\n        adminAccountIds[address(0x4b3527ad07fA1Ab3E7bFe83ec18cC6cB57d6c908)] = true;\n        adminAccountIds[address(0x76D81132eb074d4d2277fB10FdF14177fBFA7341)] = true;\n\n        votingEndTime = block.timestamp;\n    }\n\n    // This function will add a new candidate with a given name to candidates map\n    function addCandidate(string memory _name) public {\n        require(adminAccountIds[msg.sender], \"Only admin accounts can add the candidate\"); // Check if msg.sender is an admin\n        candidatesCount++;\n        candidates[candidatesCount] = Candidate(candidatesCount, _name, 0);\n    }\n\n    // This function will receive candidateId and voterId as arguments and checks certain conditions to capture a vote\n    // It will increase the given candidateId vote count and mark the voterId as voted.\n    function vote (uint _candidateId, uint _voterId) public {\n        require(block.timestamp < votingEndTime, \"Voting has ended\");\n        require(voters[msg.sender].voterId ==0, \"Voter not registered\");\n        require(voters[msg.sender].voterId != _voterId, \"InvalidVoterId\" );\n        require(!voters[msg.sender].hasVoted, \"You have already voted\");\n        voters[msg.sender].hasVoted = true;\n        voterAddresses.push(msg.sender);\n        candidates[_candidateId].voteCount++;\n        emit votedEvent(_candidateId);\n    }\n\n    // This function will receive voterId and voterAddress as arguments and checks if it's a legit voter.\n    // It will add a new voter to voters and uniqueVoterIds map\n    function registerVoter(uint _voterId, address _voterAddress) public{\n        require(!uniqueVoterIds[_voterId] || voters[_voterAddress].voterId==0, \"Already with same voter Id exists in Pool\" );\n        voters[_voterAddress] = Voter(_voterId, false);\n        uniqueVoterIds[_voterId] = true;\n        voterAddresses.push(_voterAddress);\n        emit voterRegisteredEvent(_voterAddress, _voterId);\n    }\n\n    // This function will return the list of candidates with id, name and count\n    function getCandidates() public view returns (Candidate[] memory) {\n        Candidate[] memory result = new Candidate[](candidatesCount);\n\n        for (uint i = 1; i <= candidatesCount; i++) {\n            result[i - 1] = candidates[i];\n        }\n\n        return result;\n    }\n\n    // This function will return the votingEndTime\n    function getVotingEndTime() public view returns (uint) {\n        return votingEndTime;\n    }\n\n    \n    /*function updateVotingEndTime(uint newTimeStamp) public {\n        require(adminAccountIds[msg.sender], \"Only admin accounts can update the end time\"); // Check if msg.sender is an admin\n        votingEndTime = newTimeStamp;\n    }*/\n\n    // This function will check if the given voterId is valid or not\n    function checkIfVoterIdExists(uint _voterId) public view returns (bool) {\n        return uniqueVoterIds[_voterId] && voters[msg.sender].voterId == _voterId;\n    }\n\n    // This function will check if the given accountId is admin or not\n    function checkIfAdminUser(address adminAccountId) public view returns (bool) {\n        return adminAccountIds[adminAccountId];\n    } \n\n    // This function will check if it's admin account and clear's the voterAddress list, candidates, voters, and uniqueVoterIds map.\n    // It will also update the voting end time to the given timestamp\n    function startNewPoll(uint newTimeStamp) public {\n        require(adminAccountIds[msg.sender], \"Only admin accounts can start a new poll\");\n\n        // Clear candidates\n        for (uint i = 1; i <= candidatesCount; i++) {\n            delete candidates[i];\n        }\n        candidatesCount = 0;\n\n        // Clear voters\n        for (uint i = 0; i < voterAddresses.length; i++) {\n            delete uniqueVoterIds[voters[voterAddresses[i]].voterId];\n            delete voters[voterAddresses[i]];\n            \n        }\n\n        delete voterAddresses;\n\n        // Update voting end time to the given timestamp\n        votingEndTime = newTimeStamp;\n    }\n\n    // This function will return the winner of the election by comparing the votes\n    function getWinner() public view returns (string memory) {\n        require(candidatesCount > 0, \"No candidates available\");\n\n        uint maxVotes = 0;\n        uint winningCandidateId;\n\n        for (uint i = 1; i <= candidatesCount; i++) {\n            if (candidates[i].voteCount > maxVotes) {\n                maxVotes = candidates[i].voteCount;\n                winningCandidateId = i;\n            }\n        }\n\n        return candidates[winningCandidateId].name;\n    }\n\n\n}\n\n/*\npragma solidity >=0.4.22 <0.9.0;\npragma experimental ABIEncoderV2;\n\ncontract VotingContract {\n    \n    struct Candidate {\n        uint id;\n        string name;\n        uint voteCount;\n    }\n\n    struct Voter {\n        uint voterId;\n        string biometricData;\n        bool hasVoted;\n    }\n\n    mapping(uint => Voter) public voters;\n    mapping(uint => bool) public uniqueVoterIds;\n    mapping(uint => Candidate) public candidates;\n    mapping(address => bool) public adminAccountIds;\n    uint public candidatesCount = 0;\n    uint public votingEndTime;\n\n    event votedEvent (\n        uint indexed _candidateId\n    );\n\n    constructor () public {\n        // Initialize admin account IDs\n        adminAccountIds[address(0xAe1DdF39a90FeeAc8708739aacCa6e8781daC6c6)] = true;\n        adminAccountIds[address(0xAe1DdF39a90FeeAc8708739aacCa6e8781daC6c6)] = true;\n        adminAccountIds[address(0x4b3527ad07fA1Ab3E7bFe83ec18cC6cB57d6c908)] = true;\n    }\n\n    function addCandidate(string memory _name) public {\n        require(adminAccountIds[msg.sender], \"Only admin accounts can add the candidate\"); // Check if msg.sender is an admin\n        candidatesCount++;\n        candidates[candidatesCount] = Candidate(candidatesCount, _name, 0);\n        votingEndTime = block.timestamp;\n    }\n\n    function registerVoter(uint _voterId, string memory _biometricData) public {\n        require(adminAccountIds[msg.sender], \"Only admin accounts can register voters\");\n        require(!uniqueVoterIds[_voterId], \"Voter ID already exists\");\n        uniqueVoterIds[_voterId] = true;\n        voters[_voterId] = Voter(_voterId, _biometricData, false);\n    }\n\n    function authenticateVoter(uint _voterId, string memory _biometricData) public view returns (bool) {\n        Voter memory voter = voters[_voterId];\n        return (voter.voterId == _voterId && keccak256(bytes(voter.biometricData)) == keccak256(bytes(_biometricData)));\n    }\n\n    function vote(uint _candidateId, uint _voterId, string memory _biometricData) public {\n        require(block.timestamp < votingEndTime, \"Voting has ended\");\n        require(!voters[_voterId].hasVoted, \"You have already voted\");\n        require(authenticateVoter(_voterId, _biometricData), \"Voter authentication failed\");\n\n        voters[_voterId].hasVoted = true;\n        candidates[_candidateId].voteCount++;\n        emit votedEvent(_candidateId);\n    }\n\n    function getCandidates() public view returns (Candidate[] memory) {\n        Candidate[] memory result = new Candidate[](candidatesCount);\n\n        for (uint i = 1; i <= candidatesCount; i++) {\n            result[i - 1] = candidates[i];\n        }\n\n        return result;\n    }\n\n    function getVotingEndTime() public view returns (uint) {\n        return votingEndTime;\n    }\n\n    function updateVotingEndTime(uint newTimeStamp) public {\n        require(adminAccountIds[msg.sender], \"Only admin accounts can update the end time\"); // Check if msg.sender is an admin\n        votingEndTime = newTimeStamp;\n    }\n\n    function checkIfVoterIdExists(uint _voterId) public view returns (bool) {\n        return uniqueVoterIds[_voterId];\n    }\n\n    // Updated function to check if an admin account exists\n    function checkIfAdminUser(address adminAccountId) public view returns (bool) {\n        return adminAccountIds[adminAccountId];\n    }\n\n    function getVoterInfo(uint _voterId) public view returns (uint, string memory, bool) {\n        Voter memory voter = voters[_voterId];\n        return (voter.voterId, voter.biometricData, voter.hasVoted);\n    }\n}\n*/",
  "sourcePath": "/Users/sumanthtalluri/ASU/Classes/Blockchain/Blockchain-Project/src/contracts/VotingContract.sol",
  "compiler": {
    "name": "solc",
    "version": "0.5.16+commit.9c3226ce.Emscripten.clang"
  },
  "schemaVersion": "3.4.16",
  "updatedAt": "2023-11-26T22:38:22.556Z",
  "networkType": "ethereum",
  "devdoc": {
    "methods": {}
  },
  "userdoc": {
    "methods": {}
  }
}